S019000053656E736F725F426F617264444D5056322E73726563E1
S11300000C9434000C9451000C9451000C94510045
S11300100C9451000C9451000C9451000C94510018
S11300200C9451000C9451000C9451000C94510008
S11300300C9451000C9451000C9451000C945100F8
S11300400C9451000C9451000C9451000C945100E8
S11300500C9451000C9451000C9451000C945100D8
S11300600C9451000C94510011241FBECFEFD8E022
S1130070DEBFCDBF11E0A0E0B1E0E0EDF0E002C0F2
S113008005900D92A030B107D9F721E0A0E0B1E0CE
S113009001C01D92A030B207E1F70E9463000C94E6
S11300A066000C940000E6EBF0E080818083E0E7DA
S11300B0F0E010828081816080831092B00083E040
S11300C08093B10008950E945300FFCFF894FFCFAE
S9030000FC
